:100000000C9429020C9470020C9470020C947002EF
:100010000C9470020C9470020C9470020C94700298
:100020000C9470020C9470020C94221C0C94F51C1D
:100030000C9496130C9470020C9470020C94700241
:100040000C9470020C9470020C9470020C94700268
:100050000C9470020C94FE130C9470020C947002B9
:100060000C9470020C9470020C9470020C94700248
:100070000C9470020C9470020C9470020C94700238
:100080000C9470020C9470020C9470020C94700228
:100090000C9470020C9470020C9470020C94700218
:1000A0000C9470020C9470020C94700201E301191C
:1000B000021902E30001E30106020602E30001E384
:1000C000011B021B02E30050004A00013030002EE9
:1000D0000051005200023031002A004F004D004E06
:1000E000004B004C00010001000100010001000173
:1000F00000010001000100010001000100010001F8
:1001000000010001000100010001000100010001E7
:1001100000010001000100010001000100010001D7
:1001200000010001000100010001000100010001C7
:1001300000010001000100010001000100010001B7
:1001400000010001000100010001000100010001A7
:100150000001000100010001000100010001000197
:100160000001000100010001000100010001000187
:100170000001000100010001000100010001000177
:100180000001000100010001000100010001000167
:100190000001000100010001000100010001000157
:1001A0000001000100010001000100010001000147
:1001B0000001000100010001000100010001000137
:1001C0000001000100010001000100010001000127
:1001D0000001000100010001000100010001000117
:1001E0000001000100010001000100010001000107
:1001F00000010001000100010001000100010001F7
:1002000000010001000100010001000100010001E6
:1002100000010001000100010001000100010001D6
:1002200000010001000100010001000100010001C6
:1002300000010001000100010001000100010001B6
:1002400000010001000100010001000100010001A6
:100250000001000100010001000100010001000196
:100260000001000100010001000100010001000186
:100270000001000100010001000100010001000176
:100280000001000100010001000100010001000166
:100290000001000100010001000100010001000156
:1002A0000001000100010012036B0065007900628B
:1002B000006F006100720064000000160371006DA1
:1002C000006B006200750069006C006400650072DC
:1002D0000000000403090409026D00040100A0FAF3
:1002E000090400000103010100092111010001229C
:1002F00040000705810308000A0904010001030109
:100300000200092111010001224D000705820308A6
:10031000000A090402000103000000092111010084
:10032000012236000705830308000A0904030001BF
:100330000300000009211101000122390007058492
:10034000032000011201100100000008EDFE6060B2
:1003500001000102000105010906A101050719E0DC
:1003600029E7150025019508750181020508190185
:100370002905950575019102950175039101050700
:10038000190029F71500250195F875018102C005AE
:10039000010980A10185021601002603001A8100CF
:1003A0002A8300751095018100C0050C0901A10187
:1003B0008503160100269C021A01002A9C02751072
:1003C00095018100C005010902A1010901A10005F3
:1003D0000919012905150025019505750181029569
:1003E00001750381010501093009311581257F95CA
:1003F000027508810609381581257F9501750881E8
:1004000006050C0A38021581257F950175088106BD
:10041000C0C005010906A101050719E029E715007B
:10042000250195087501810295017508810105086E
:100430001901290595057501910295017503910131
:100440000507190029FF150026FF0095067508818C
:1004500000C011241FBECFEFDAE0DEBFCDBF04B66F
:1004600003FE27C08091050290910602A091070229
:10047000B09108028730904BA740B04BD1F4109256
:10048000050210920602109207021092080214BE92
:1004900084B7877F84BF0FB6F894A89580916000D9
:1004A000886180936000109260000FBEE0E0F8E386
:1004B000099511E0A0E0B1E0E2E7F0E402C00590A8
:1004C0000D92A033B107D9F722E0A0E3B1E001C05B
:1004D0001D92A530B207E1F70E9471190C943720E4
:1004E0000C940000FC01613061F028F0623079F07A
:1004F00090E080E0089582818823D1F38EEB90E034
:10050000089582818823A1F385EB90E0089582818C
:10051000882371F38CEA90E008950895089581E0AE
:100520000895089581E008950C948F020E940E0CA6
:100530002FEF84E39CE0215080409040E1F700C021
:1005400000000C942314FF920F931F93CF93DF931B
:100550008C01FC01C081D1818091550181113FC086
:1005600082818823B9F1CE010E947711F82E682F7D
:10057000CE010E941B11BE018F2D0E94EA03EC01E7
:10058000B8010E949402882309F44AC0B801CE0140
:100590000E94FA05882309F443C0C531F0E7DF075C
:1005A00018F5C23080E7D80708F04BC0C115E0E766
:1005B000DE0789F1C130D047D1F181E0809332016B
:1005C00080933301C801DF91CF911F910F91FF906C
:1005D0000C949202CE010E944B11F82ECCCFCE018A
:1005E0000E947711BE01C9CFCC3380E7D80709F448
:1005F000ACC0CD33D04709F7F8018281882309F4D4
:10060000CBC0109233010E94C813909331018093A4
:10061000300180E2A7C0F801828181110E94960218
:1006200080E0DF91CF911F910F91FF900895F80125
:1006300082818823A9F38091C50181608093C501DF
:10064000EFCFF8018281882309F4BCCF0E942813E0
:10065000811102C00E940E130E94451390E09093F6
:10066000F7018093F601FE01E350F0478091F60117
:100670008160E231F105C8F4E05CFC4F0C94E71FA7
:1006800052035E03620366036A036E03720376031A
:100690007A037E03820386038A038E039203960302
:1006A0009A039E038091F60182608093F601809107
:1006B000F6010E9449130E940E0CB2CF8091F60100
:1006C0008460F3CF8091F6018860EFCF8091F601CE
:1006D0008061EBCF8091F6018062E7CF8091F601D7
:1006E0008064E3CF8091F6018068DFCF8091F601CE
:1006F0008460EACF8091F6018E7FD7CF8091F6019A
:100700008D7FD3CF8091F6018B7FCFCF8091F60183
:10071000877FCBCF8091F6018F7EC7CF8091F60186
:100720008F7DC3CF8091F6018F7BBFCF8091F60183
:100730008F77BBCF8091F6018B7FEACF9091F60146
:10074000892F97FB87F98058B0CFF80182818823E1
:1007500061F0109232010E94C8139093310180938E
:10076000300182E00E9498095BCF809132018111B3
:100770000FC080913001909131010E94D413883CC8
:10078000910530F486E20E946D0886E20E944909D4
:1007900082E00E949F0944CF8091330181110FC0F4
:1007A00080913001909131010E94D413883C9105D1
:1007B00030F487E20E946D0887E20E94490980E2D6
:1007C000E8CF0C9449060C944B060C9491020C94BF
:1007D000E5030895972F70E025E0929F600D711D4D
:1007E0001124FB019FE0899FE00DF11D1124EE0F04
:1007F000FF1FE953FF4F859194910895FC01EE0F7F
:10080000FF1FE955FD4F8591949108950E94EA03D9
:100810000E947905811520E4920708F08DC08115AA
:1008200040E3940708F0E8C0803E910508F071C0ED
:10083000803C910508F0CCC0883A910580F4853A57
:10084000910508F0CAC08130910509F46EC020F00E
:100850008430910508F069C090E080E008958D3BF8
:100860009105D0F7883A910509F404C1893A9105B8
:1008700009F403C18A3A910509F402C18B3A910542
:1008800009F401C18C3A910509F400C18B3B910533
:1008900009F4FFC08C3B910509F4FEC08D3A910527
:1008A00009F4FDC0803B910509F4FCC08E3A910526
:1008B00009F4FBC08F3A910509F4FAC0813B910518
:1008C00009F4F9C0823B910509F4F8C0833B910516
:1008D00009F4F7C0843B910509F4F6C0853B910506
:1008E00009F4F5C0863B910509F4F4C0873B9105F6
:1008F00009F4F3C0883B910509F4F2C0893B9105E6
:1009000009F4F1C08A3B910509F4F0C080E094E459
:1009100008958F3F910509F048F4803F910508F054
:1009200067C0883E910508F097CF0895811520E2B1
:10093000920708F05FC00895811543E5940760F5BC
:10094000811522E5920708F062C0811541E5940700
:1009500008F058C0811520E5920708F450C09C01AA
:1009600054E0369527955A95E1F7922F9370482FCA
:10097000437021E030E002C0220F331F4A95E2F7B6
:100980003C68392B86958695837040E2849FC00130
:100990001124822B932B0895811545E5940750F47B
:1009A000811524E5920708F446C0982F8827846FA4
:1009B000906A0895811546E5940708F450C09C019B
:1009C00030569F702115304108F046CF906208954F
:1009D000805C91090E94FE030895853A910509F40F
:1009E00043C0863A910509F042C082E890E4089538
:1009F000906508959F70EECF9927906C08959F7031
:100A0000906A0895982F8827816F906A0895AC01A5
:100A10004370552721E030E002C0220F331F4A9572
:100A2000E2F78695869540E2849FC0011124822BCF
:100A3000932B9C680895AC014370552721E030E06A
:100A400002C0220F331F4A95E2F78695869540E251
:100A5000849FC0011124822B932B9A680895982FAC
:100A6000882788279F71B2CF81E890E4089583E8B2
:100A700090E4089582EE94E4089589EE94E4089554
:100A80008AEE94E4089585EB94E4089586EB94E46B
:100A9000089583EB94E4089584EB94E4089587EB40
:100AA00094E408958CEC94E408958DEC94E4089516
:100AB00083E895E408958AE895E4089582E995E449
:100AC000089584E995E4089581E296E4089583E227
:100AD00096E4089584E296E4089585E296E4089504
:100AE00086E296E4089587E296E408958AE296E421
:100AF0001CCF8238910549F1B0F48133910509F496
:100B00005CC048F48932910509F452C08A329105DB
:100B100009F458C008958533910509F444C0893318
:100B2000910599F00895833E910531F138F4803EA6
:100B3000910591F0823E9105B1F00895863E9105B0
:100B400011F1873E910541F108952091F60123703E
:100B5000C9F080EE90E008952091F60120FF12C0C8
:100B600089E390E008952091F60122FF0BC024FF55
:100B70002EC090E080E008952091F60122FD2AC069
:100B800024FDF7CF08952091F60123FFFBCF24FD2C
:100B9000F0CF87EE90E008952091F60123FFF0CF8B
:100BA00086EE90E008952091F60125FD16C0089587
:100BB0002091F60125FD14C008952091F60126FD2F
:100BC00012C008952091F60126FD10C0089583EE0D
:100BD00090E0089582EE90E0089589E290E0089513
:100BE00085E390E008958AE290E0089581E390E043
:100BF000C9CF08950F931F93CF938C01FB0182817E
:100C0000811106C0C1E08C2FCF911F910F910895E3
:100C1000C0914101C11125C00531104799F70E94CB
:100C2000F90581E0809341010E94C813909340012F
:100C300080933F01109234011092360110923501D9
:100C4000109238011092370110923A011092390136
:100C500010923C0110923B0110923E0110923D0116
:100C6000D2CF80913F01909140010E94D413883CE3
:100C7000910540F680913401E82FF0E0EE0FFF1F60
:100C8000EB5CFE4F118300838F5F80933401C0E0E3
:100C9000BACF0C948D020C948E02CF93DF9385B75C
:100CA000806885BF85B7806885BFA8E1B1E04BE16A
:100CB00051E0C1E0D0E08D91E82FE295EF70F0E0D7
:100CC00061A18F709E0101C0220F8A95EAF7922FD1
:100CD0009095962391A382A1822B82A34A175B074A
:100CE00051F7A3E1B1E048E151E0C1E0D0E08D91DE
:100CF000E82FE295EF70F0E061A18F709E0101C0D6
:100D0000220F8A95EAF7922F9095962391A382A1BC
:100D1000822B82A34A175B0751F71092450110926C
:100D20004201109246011092430110924701109225
:100D30004401DF91CF910C94E1036F927F929F92D7
:100D4000AF92BF92CF92DF92EF92FF920F931F93D9
:100D5000CF93DF93C2E4D1E008E111E0EE24E39405
:100D6000F12CDD24D39478811882D8018D918D01E6
:100D7000E82FE295EF70F0E091A18F70A70101C01C
:100D8000440F8A95EAF7892F842B81A382A1942EA0
:100D90009094892182A3B0EABA95F1F733E1632EEA
:100DA00031E0732E90E080E0D3013D913D01A32E10
:100DB000A2942FE0A222B12CD5019096CC9068810C
:100DC0003F70D70102C0AA0FBB1F3A95E2F79D0101
:100DD0002C2109F04EC02E2D082E01C0220F0A949E
:100DE000EAF7262B2883019685309105E9F681A143
:100DF000892181A382A1842B82A38881781741F065
:100E0000D09248010E94C81390934A0180934901EF
:100E10002196B1E00B311B0709F0A5CF8091480165
:100E20008823B1F08091490190914A010E94D41326
:100E3000069770F0809142018093450180914301B3
:100E400080934601809144018093470110924801AC
:100E50000E94E30381E0DF91CF911F910F91FF90FA
:100E6000EF90DF90CF90BF90AF909F907F906F906A
:100E7000089520E0B6CFE82FF0E0EB5BFE4F8081D5
:100E8000089508959093500180934F010895E09143
:100E90004F01F0915001309721F00190F081E02D49
:100EA000099480E00895E0914F01F091500130974E
:100EB00021F00280F381E02D09940895E0914F0123
:100EC000F0915001309721F00480F581E02D0994D4
:100ED000089520914D0130914E012817390771F086
:100EE00090934E0180934D01E0914F01F09150019C
:100EF000309721F00680F781E02D09940895209124
:100F00004B0130914C012817390771F090934C0137
:100F100080934B01E0914F01F0915001309721F007
:100F20000084F185E02D0994089508950C949507A7
:100F30000E94BF130E944D060C948814BF92CF925A
:100F4000DF92EF92FF920F931F93CF93DF93CDB772
:100F5000DEB72A970FB6F894DEBF0FBECDBF0E9452
:100F60009D0682E5C82E81E0D82E10E000E0B02E6C
:100F7000802F0E943B07E82EF601F1906F01F816D2
:100F800009F45AC08091C50181FD0E94410790E09B
:100F900080E0FE242F2D30E0482FB901082E02C03A
:100FA000759567950A94E2F760FF41C08E83BF8212
:100FB00081E090E06C0102C0CC0CDD1C4A95E2F7A8
:100FC0002E2D30E02C213D21232B09F480E0888751
:100FD0000E94C8138160782F9A8789874E815F812C
:100FE00068858A850E944308F801EE5AFE4F808189
:100FF0008C2580830E940B170E9447079091510116
:10100000891789F10E944707809351012A960FB6EC
:10101000F894DEBF0FBECDBFDF91CF911F910F912E
:10102000FF90EF90DF90CF90BF900C94E703019674
:101030008530910509F0B0CF0F5F1F4F03301105C8
:1010400009F095CF8FEF89838A831B820E94C81392
:101050008160782F9D838C8349815A816B818D813A
:101060000E944308C7CF2A960FB6F894DEBF0FBE82
:10107000CDBFDF91CF911F910F91FF90EF90DF9047
:10108000CF90BF900895CF93DF93CDB7DEB72B9766
:101090000FB6F894DEBF0FBECDBF4F835887698768
:1010A0007A878B871E821D8285E0FE013796DE01DE
:1010B000119601900D928A95E1F749815A816B81D1
:1010C0007C818D819E812B960FB6F894DEBF0FBE7A
:1010D000CDBFDF91CF910C94C00E882309F4D8C006
:1010E000823871F40E94470781FDD2C089E30E94D3
:1010F00017120E94DF1289E30E9454120C94DF122F
:10110000833859F40E94470780FDC2C083E50E94DE
:1011100017120E94DF1283E5EFCF843859F40E9442
:10112000470782FDB5C087E40E9417120E94DF12B4
:1011300087E4E2CF9CEF980F913A18F40E941712BF
:10114000DDCF90E2980F983050F4877091E001C0A5
:10115000990F8A95EAF7892F0E949612CFCF9BE5C7
:10116000980F933070F4853A31F0863A39F083E87D
:1011700090E00C94690781E890E0FBCF82E890E072
:10118000F8CF98E5980F953108F082C0883A09F4B5
:1011900040C0893A09F440C08A3A09F440C08B3A09
:1011A00009F440C08C3A09F440C08B3B09F440C0BC
:1011B0008C3B09F440C08D3A09F440C0803B09F4EF
:1011C00040C08E3A09F440C08F3A09F440C0813BD8
:1011D00009F440C0823B09F440C0833B09F440C09D
:1011E000843B09F440C0853B09F440C0863B09F4C8
:1011F00040C0873B09F440C0883B09F440C0893BAC
:1012000009F440C08A3B09F440C090E080E00C94AF
:101210007F0782EE90E0FBCF89EE90E0F8CF8AEE78
:1012200090E0F5CF85EB90E0F2CF86EB90E0EFCF4A
:1012300083EB90E0ECCF84EB90E0E9CF87EB90E09C
:10124000E6CF8CEC90E0E3CF8DEC90E0E0CF83E84C
:1012500091E0DDCF8AE891E0DACF82E991E0D7CF63
:1012600084E991E0D4CF81E292E0D1CF83E292E0B1
:10127000CECF84E292E0CBCF85E292E0C8CF86E287
:1012800092E0C5CF87E292E0C2CF8AE292E0BFCF80
:101290000895882309F44BC0823871F40E944707EF
:1012A00081FF45C089E30E9417120E94DF1289E383
:1012B0000E9454120C94DF12833859F40E9447079D
:1012C00080FF35C083E50E9417120E94DF1283E57C
:1012D000EFCF843859F40E94470782FF28C087E483
:1012E0000E9417120E94DF1287E4E2CF9CEF980F52
:1012F000913AF0F290E2980F983050F4877091E0B4
:1013000001C0990F8A95EAF7892F0E949C12D2CFCB
:101310009BE5980F933020F490E080E00C946907EF
:10132000885A853120F490E080E00C947F0708957E
:10133000882321F00E9496120C94DF1208958823CE
:1013400021F00E949C120C94DF1208958F929F92BC
:10135000AF92BF92DF92EF92FF920F931F93CF93C2
:10136000DF937C01D62FC72FFC01058102950F70FA
:10137000128111110E94B5120E941012D82E8823DA
:1013800071F0112321F180E28D0F883000F182E0AD
:101390000E94FA110E94101291E0D82ED926EC2F4B
:1013A000E295EF70F0E0E952F64F0C94E71FE9097F
:1013B000E909390A390A7B0A970A160A160AA20AA3
:1013C000160A3A0B3A0BAD0B160A160AB60BD12CBD
:1013D000E6CF0C2F0F70C07F11F00295007F112314
:1013E000A9F0002359F080E28D0F883010F0D11160
:1013F00009C0802F0E9496120E94DF128D2F0E943A
:101400006D0814C0802F0E94A712F6CF8D2F0E9466
:101410004909002359F080E28D0F883010F0D11176
:1014200024C0802F0E949C120E94DF12DD2009F44C
:10143000A4C10E94ED1180FDA0C1F70112820E949B
:10144000E7110E945F10C7010E94C90B0E94E711BB
:10145000DF91CF911F910F91FF90EF90DF90BF90A0
:10146000AF909F908F900C948010802F0E94AD12AF
:10147000DBCFFC2FFF70BF2EC07FC03219F0B294BB
:1014800080EFB822DD2369F0D13029F1112369F111
:10149000002359F0F701858180FFB0CF8F708583DD
:1014A00004C0112361F0011104C08B2D0E94980922
:1014B000BDCF8B2D0130D1F70E94C912B7CF0111DA
:1014C00006C00E94CC128B2D0E949F09AFCF013025
:1014D00009F4ACCFF6CF112321F0063008F0A6CFE7
:1014E000E4CF053008F0A2CFEECF002361F38D2FBB
:1014F0000E9449099BCF8C2F86958695837069F051
:10150000813009F093CF8D2F9C2F9370111102C061
:1015100090E080E00E947F0789CF8D2F9C2F9370F1
:10152000111102C090E080E00E9469077FCF8D2FEB
:10153000112329F00E9414160E94001777CF0E94F1
:101540007C16FACF8C2F837009F047C011116ECF33
:101550002D2F229526952770220F220F6D2F6F7049
:10156000862E912CB12CA12C022E04C0880C991C23
:10157000AA1CBB1C0A94D2F760E070E0CB01D4FF38
:101580000FC06FE070E080E090E004C0660F771F4E
:10159000881F991F2A95D2F7609570958095909530
:1015A000C695C695C370C23051F080F46829792978
:1015B0008A299B29C13071F00E94081037CF682911
:1015C00079298A299B290E94241030CF0E94081073
:1015D000C501B4010E94EC0F29CF8695112311F0AB
:1015E0008C2F8170882309F421CF2D2F22952695E9
:1015F0002770220F220F6D2F6F70862E912CB12C29
:10160000A12C022E04C0880C991CAA1CBB1C0A9495
:10161000D2F760E070E0CB01D4FF0FC06FE070E064
:1016200080E090E004C0660F771F881F991F2A95FD
:10163000D2F76095709580959095C695C695C370C4
:10164000C23051F080F4682979298A299B29C13058
:1016500071F00E94E210EACE682979298A299B2933
:101660000E94FE10E3CE0E94E210C501B4010E9468
:10167000C610DCCEE0E2ED0FE53108F062C0F0E02C
:10168000EC5BF44F0C94E71F590B590B590B590B9A
:10169000590B590B590B590B590B590B590B590B2A
:1016A000590B590B590B590B660B740B7B0B820BA7
:1016B0008C0BDF708C2F8F71112321F00E945F1033
:1016C0008D2FF4CE0E9480108D2FFECE112341F07D
:1016D000053008F0ABCE8C2F8F710E94A510A6CEDE
:1016E000063008F0A3CEF7CF8C2F8F71112339F07D
:1016F0000E945F109BCE8C2F8F711123C9F30E9423
:10170000801094CE112329F08C2F8F710E944A10E3
:101710008DCE0E9440108ACE112349F0CF718C2FBC
:101720000E945F1063E08C2F0E94F1117FCE81E058
:101730000E94FA11023008F479CE82E00E94FA1178
:1017400075CE112329F0011159CE8C2F8F71D0CF76
:101750000111CDCE8C2F8F71D2CF4C2F4F706D2FAA
:10176000C7010E9472020E94690F60CE4C2F4F7019
:101770006D2FC7010E94E90359CEDF91CF911F91D0
:101780000F91FF90EF90DF90BF90AF909F908F9060
:1017900008950F931F93CF93DF93EC019881898174
:1017A0002B813C81232B39F08F3F19F481E09F3F3F
:1017B00019F080E001C081E080FD17C0CE010E94D9
:1017C000A302882391F0688179818A810E94C311E4
:1017D0008C010E941A110E94E10FB801CE01DF9125
:1017E000CF911F910F910C94A609DF91CF911F917A
:1017F0000F9108950E94B5120E94C6120E9488128D
:101800000E94DF120E94AD170E94001790E080E056
:101810000E94690790E080E00C947F070E94A41268
:101820000C94FA0B0E94B911E92FE295EF70E25087
:10183000EE30E0F4F0E0E15EF34F0C94E71F2D0C86
:101840002D0C360C360C380C360C360C360C2D0C98
:101850002D0C3D0C360C360C3D0C803F19F020F45D
:10186000803E20F481E00895843FE1F380E0089514
:10187000803EC0F3813FD1F7F5CF93FB882780F9F5
:101880000895CF93DF9300D000D01F92CDB7DEB77D
:101890000F900F900F900F900F90DF91CF910895C0
:1018A000CF93DF9300D000D000D0CDB7DEB726961F
:1018B0000FB6F894DEBF0FBECDBFDF91CF91089574
:1018C0001F93CF93DF93C091560116E0809157018B
:1018D0008C1304C0DF91CF911F910895D0E01C9F1D
:1018E000F0011D9FF00D1124E85AFE4F40815181F7
:1018F00062817381848195810E94500C2196C7700A
:10190000E5CF409188015091890160918A017091E1
:101910008B0180918C0190918D010C94500C1F9340
:10192000CF93DF9380918D01807FD1F480918A01E4
:101930008823B1F080915601D0915701B091880170
:10194000C091890140918B0150918C01A1E0BF3F72
:1019500009F0A0E0BA016095709516E0D81304C0B4
:10196000DF91CF911F91089521E04115510521F09C
:101970002A2FCF3F09F020E090E020FD38C0189FCB
:10198000F001199FF00D1124E85AFE4F21812C130C
:101990002EC020812B132BC02281211128C023812E
:1019A00034812417350700F1241B350B283C310501
:1019B000F0F420918D012F70206120938D0126E09D
:1019C000289FF001299FF00D1124E35AFE4F8081DA
:1019D0008F708061808388E891E00E94C90BDF915D
:1019E000CF911F910C94600C260F371FDFCF01960B
:1019F0008770B4CFAF92BF92CF92DF92EF92FF92F7
:101A00000F931F93CF93DF93CDB7DEB761970FB6D8
:101A1000F894DEBF0FBECDBF8C0185E0F801DE017A
:101A20001D9601900D928A95E1F7D8014C9111967F
:101A30005C9111971296EC90309188016091890128
:101A400080918B0190918C0121E0009731F06F3FE4
:101A500019F421E03F3F09F020E0B22FB170BB2E16
:101A600020FD80C1F801C380D480A0908A01AA2003
:101A700009F427C1C816D906D0F1D601A81BB90BA5
:101A8000CD01FF24F394883C910508F0F12C80915E
:101A90008D01982F907FFF2009F4CAC0911187C053
:101AA000FE2C651329C0341327C0E11025C08F70A8
:101AB000806180938D010E94810C88E891E00E94F2
:101AC000C90B80918D01F80185838F2D61960FB62A
:101AD000F894DEBF0FBECDBFDF91CF911F910F9164
:101AE000FF90EF90DF90CF90BF90AF9008958095DA
:101AF00090958C0D9D1DC5CF81E0CD2831F05F3FC5
:101B000019F481E04F3F09F080E080FD24C081E0BE
:101B10008E25F82FF170DF2E80FF3FC08091560197
:101B20002091570136E0821318C04D875E878D855E
:101B30009E850E94B911292F22952F70223008F11D
:101B4000243030F59F7009F1D80115969C91907F53
:101B5000E1F4FB2CBACF80E0DCCF90E0389FF001BD
:101B6000399FF00D1124E85AFE4F6181561306C0CB
:101B70006081461303C062816E110FC001968770A9
:101B8000D2CF9F7011F0882321F3805E883008F354
:101B9000C8010E94C90BBD2CDCCFEE2009F495CF03
:101BA00080918D01816080938D01F12C8ECF651322
:101BB00012C0341310C0E1100EC0F8018583C801B3
:101BC0000E94C90B86E0F801A8E8B1E001900D92EF
:101BD0008A95E1F741C04D875E878D859E850E947D
:101BE000120C882309F4C8C0EE2009F4C5C0809106
:101BF0008D01803270F02091880130918901388701
:101C00002F831986DB86CA868C87CE0107960E94B1
:101C1000C90B86E0F801A8E8B1E001900D928A9521
:101C2000E1F70E948F0C0E94810CFF24F3944DCFAA
:101C3000911115C07C2DD98AC88A6E2D89890E9480
:101C4000410C88E891E00E94C90B86E0E8E8F1E0E9
:101C5000DF011D928A95E9F70E94810C36CF65134A
:101C600012C0341310C0E1100EC0F8018583C80102
:101C70000E94C90BE8E8F1E086E0DF011D928A9539
:101C8000E9F7FA2C22CF4D875E878D859E850E94CD
:101C9000120C882309F470C0EE2009F46DC0809105
:101CA0008D01803208F4B5CF2091880130918901EF
:101CB0003A8329831B82DD82CC828E83CE010196FA
:101CC000A6CFC816D90638F1F601E81BF90BCF01EB
:101CD000F12C883C910508F03DC0FE2CEE2009F463
:101CE0004BC0651326C0341324C080918D0180FD44
:101CF00017C0982F907FA1F0D80115968C93159757
:101D0000903F09F45CCF982F907F905F8F70892B64
:101D100015968C9354CF809590958C0D9D1DD8CFA2
:101D200086E0F801A8E8B1E001900D928A95E1F70C
:101D3000CCCE4D875E878D859E850E94120C8111C9
:101D400068CF80918D01816080938D01C8010E94D0
:101D5000C90BBBCE7C2DD98AC88A6E2D89890E9479
:101D6000410C73CFEE2041F04D875E878D859E85B7
:101D70000E94120C81114DCFC8010E94C90B55CF92
:101D80001F93CF93DF93CDB7DEB72C970FB6F894A0
:101D9000DEBF0FBECDBF4F83588769877A878B8799
:101DA0009C87CE0107960E94FA0C882309F442C052
:101DB0009F8188852A853B85232B39F08F3F19F435
:101DC00081E09F3F19F080E001C081E080FD08C004
:101DD0004F81588569857A858B859C850E94500C3A
:101DE00016E08091560190915701891709F467C058
:101DF000819FC0011124885A9E4F0E94FA0C8823AB
:101E000009F45DC0E09156011E9FF0011124E85ACB
:101E1000FE4F4081518162817381848195810E944E
:101E2000500C8091560190E001968770992780931D
:101E30005601D7CF86E0FE013796DE01119601905C
:101E40000D928A95E1F79F8188852A853B85232B12
:101E500039F08F3F19F481E09F3F19F080E001C015
:101E600081E080FDBDCF2091570130E0C90101968E
:101E700087709927409156014817190699F096E006
:101E8000929FD001939FB00D1124A85ABE4FFE011E
:101E9000319601900D929A95E1F7809357010E9437
:101EA000600C9ECF0E940E0C1092570110925601AA
:101EB00086E0E8E8F1E0DF011D928A95E9F72C96CB
:101EC0000FB6F894DEBF0FBECDBFDF91CF911F914B
:101ED0000895EF92FF920F931F93CF93DF938C019E
:101EE000892B81F0F12CEE24E394E8012196F8018E
:101EF0008491843770F4843008F05FC08130B1F091
:101F00008230A1F1DF91CF911F910F91FF90EF905F
:101F10000895853709F44CC008F43DC09CE7980F3C
:101F2000903780F78F770E94490949C00E5F1F4F95
:101F3000FE01849190E2980F983060F48770FE2D36
:101F400001C0FF0F8A95EAF78F2F0E94B8120E94F6
:101F5000DF1202C00E946D088F2D815030F2EFE930
:101F6000FFE03197F1F700C00000F7CF0E5F1F4F81
:101F7000FE01849190E2980F983050F48770FE2D06
:101F800001C0FF0F8A95EAF78F2F0E94BE12DFCFA4
:101F90000E944909E1CF0E5F1F4FFE01C491C1505D
:101FA000D8F28FE99FE00197F1F700C00000F7CF6A
:101FB0000E5F1F4FFE01F490CFCF0E946D088E017F
:101FC000CBCF089560939C0170939D0180939E01F7
:101FD00090939F010C94FA0B0F931F9300919C0117
:101FE00010919D0120919E0130919F01DC01CB0158
:101FF000802B912BA22BB32B80939C0190939D015E
:10200000A0939E01B0939F011F910F910C94FA0B26
:102010000F931F9300919C0110919D0120919E01AF
:1020200030919F01DC01CB0180239123A223B323B4
:1020300080939C0190939D01A0939E01B0939F017A
:102040001F910F910C94FA0B0F931F9300919C0119
:1020500010919D0120919E0130919F01DC01CB01E7
:1020600080279127A227B32780939C0190939D01FD
:10207000A0939E01B0939F011F910F910C94FA0BB6
:10208000109298011092990110929A0110929B015E
:102090000C94FA0B41E050E060E070E004C0440FA3
:1020A000551F661F771F8A95D2F74093980150936A
:1020B000990160939A0170939B010C94FA0B41E093
:1020C00050E060E070E004C0440F551F661F771FAA
:1020D0008A95D2F78091980190919901A0919A01E7
:1020E000B0919B01842B952BA62BB72B8093980145
:1020F00090939901A0939A01B0939B010C94FA0BD1
:1021000041E050E060E070E004C0440F551F661FDE
:10211000771F8A95D2F7409550956095709580917C
:10212000980190919901A0919A01B0919B0184230B
:102130009523A623B7238093980190939901A093A8
:102140009A01B0939B010C94FA0B41E050E060E0DF
:1021500070E004C0440F551F661F771F8A95D2F7A1
:102160008091980190919901A0919A01B0919B0161
:1021700084279527A627B7278093980190939901E4
:10218000A0939A01B0939B010C94FA0B0F931F93A9
:10219000009198011091990120919A0130919B0131
:1021A000DC01CB01802B912BA22BB32B80939801C8
:1021B00090939901A0939A01B0939B011F910F9165
:1021C0000C94FA0B0F931F930091980110919901B1
:1021D00020919A0130919B01DC01CB018023912356
:1021E000A223B3238093980190939901A0939A011D
:1021F000B0939B011F910F910C94FA0B0F931F93B7
:10220000009198011091990120919A0130919B01C0
:10221000DC01CB0180279127A227B3278093980167
:1022200090939901A0939A01B0939B011F910F91F4
:102230000C94FA0B0895292F220F220F920F890F69
:10224000982F977071E001C0770F9A95EAF78695FD
:102250008695869525E0829FC001112450E040E0DC
:10226000A62FB0E0FC01E40FF51FE257FE4F60819E
:102270009D01042E02C0369527950A94E2F721703D
:10228000219526272723262720834F5F5F4F453040
:10229000510541F70895292F220F220F920F890F20
:1022A000982F977086958695869545E0849F900136
:1022B000112470E060E080E0F901E60FF71FE257BB
:1022C000FE4F408150E0092E02C0569547950A9472
:1022D000E2F741705527062E01C0440F0A94EAF731
:1022E000842B6F5F7F4F6530710531F70895BF9282
:1022F000CF92DF92EF92FF920F931F93CF93DF93D2
:102300008C01C0909801D0909901E0909A01F090D2
:102310009B0180919C0190919D01A0919E01B091A3
:102320009F01C82AD92AEA2AFB2ACFE1D0E0BC2E95
:10233000D701C6010C2E04C0B695A7959795879531
:102340000A94D2F780FD0EC0219788F7B12C8B2D0F
:10235000DF91CF911F910F91FF90EF90DF90CF9081
:10236000BF900895B8018C2F0E940604019761F375
:10237000EECFCF93DF93EC010E947711BE01DF9186
:10238000CF910C9406041F93CF93DF93EB019091B0
:102390005501992331F0CB01DF91CF911F910C941E
:1023A000B911882379F0CB010E947711182F682F7B
:1023B000CE010E941B11BE01812FDF91CF911F9191
:1023C0000C940604CB010E944B11182FF4CF80917E
:1023D000A00185958595859508958091A0018770C8
:1023E000089598E0899F90011124622B6093A001C9
:1023F0000C945F109091A001809589238093A00197
:10240000282F277061F4282F082E000C330B921709
:10241000130629F08595859585950C94801008956F
:102420009091A001977081E009F480E00895909167
:1024300012019923E1F09091F60197FF18C0E82F5F
:10244000E695E695E695EF3139F12091000130915E
:102450000101E20FF32FF11D877021E030E001C090
:10246000220F8A95EAF78181822B8183089520913A
:10247000000130910101F90132969FEF40E0519146
:10248000851751F09F3F19F4511101C0942F4F5FF0
:102490004E31A9F79F3F09F40895290F311D97FD8B
:1024A0003A95F90182830895909112019923F1F0F0
:1024B0009091F60197FF1AC0E82FE695E695E6950C
:1024C000EF3129F12091000130910101E20FF32F4A
:1024D000F11D282F277081E090E001C0880F2A9518
:1024E000EAF78095918189238183089520910001E5
:1024F00030910101F9013296205E3F4F919189138D
:1025000003C0DF0111971C92E217F307B9F7089592
:1025100081E090E0E0910001F0910101E80FF91FE6
:102520001082019680329105A9F708959091C40117
:10253000892B8093C4010895982F90958091C401B0
:1025400089238093C40108951092C4010895909145
:10255000C301892B8093C3010895982F9095809192
:10256000C30189238093C30108951092C301089584
:102570009091C201892B8093C2010895982F909564
:102580008091C20189238093C20108951092C201F3
:1025900008958093A10108951092A10108952091BA
:1025A000000130910101F9013196205E3F4F80E03A
:1025B000919191118F5FE217F307D1F70895E091A0
:1025C0000001F09101018091C4018083E09100013C
:1025D000F091010180819091C301892B8083E0916A
:1025E0000001F091010180819091C201892B8083CB
:1025F0009091A101992361F0E0910001F091010116
:102600008081892B80830E94CF1281111092A101B9
:1026100080910001909101010C9453076DEE7EEFC3
:1026200090E080E00E94212060E082E090E00E9443
:102630000F2060E083E090E00E940F2060E084E0E3
:1026400090E00E940F2060E085E090E00C940F2065
:1026500090E080E00E94092021E08D3E9E4F09F02D
:1026600020E0822F089582E090E00C940120682FF2
:1026700082E090E00C940F2083E090E00C94012025
:10268000682F83E090E00C940F2084E090E00C949D
:102690000120682F84E090E00C940F208091FC01D1
:1026A000843039F11092C60188E190E020E40FB641
:1026B000F894A895809360000FBE2093600080E09E
:1026C0000E94E70383B7817F846083BF83B7816003
:1026D00083BF7894889583B78E7F83BF0FB6F894B5
:1026E000A8958091600088618093600010926000DE
:1026F0000FBE089508950895CF930E947A130E9403
:102700009D060E947B13C0E08C2F0E943B07811125
:1027100005C0CF5FC330C1F7CF91089581E0FCCFF2
:102720000E940E0C0E9447070C94E7031F920F9221
:102730000FB60F9211248F939F93AF93BF93809105
:10274000C601811113C08091F2019091F301A09113
:10275000F401B091F5014196A11DB11D8093F201E4
:102760009093F301A093F401B093F501BF91AF9161
:102770009F918F910F900FBE0F901F90189582E040
:1027800084BD93E095BD9AEF97BD80936E00089548
:102790002FB7F8948091F2019091F301A091F40188
:1027A000B091F5012FBF0895CF92DF92EF92FF9283
:1027B0000F931F932FB7F8944091F2015091F301BA
:1027C0006091F4017091F5012FBF6A017B01EE2445
:1027D000FF248C0130E020E0C016D106E206F306AB
:1027E00050F0481B590BCA011F910F91FF90EF90B9
:1027F000DF90CF90089541505109F3CF1F920F926F
:102800000FB60F9211248F939F93AF93BF93809134
:10281000F2019091F301A091F401B091F5010196BC
:10282000A11DB11D8093F2019093F301A093F401D7
:10283000B093F501BF91AF919F918F910F900FBE13
:102840000F901F9018950E94A71BF8942FEF87EA0E
:1028500091E6215080409040E1F700C0000087E001
:1028600090EBDC018093050290930602A09307028F
:10287000B093080288E19CE00FB6F894A895809385
:1028800060000FBE90936000FFCFCF92DF92EF9277
:10289000FF920F931F93CF93C0E0E82EF12C8C2F63
:1028A0000E943B0710E000E0C82ED12CC601002E8C
:1028B00002C0959587950A94E2F780FD11C00F5FDD
:1028C0001F4F0530110591F7CF5FC33041F780E00E
:1028D000CF911F910F91FF90EF90DF90CF900895CF
:1028E000602F7C2F80E00E94EA03E816F90639F792
:1028F00081E0EECFCF93C82F8CE20E94451488234D
:1029000021F08C2FCF910C94451480E0CF91089545
:10291000CF930E942813811102C00E940E13C5E6B6
:1029200008C00E949D068FE39CE90197F1F700C063
:102930000000C150B1F789E20E947A148111EFC002
:102940008AE20E947A1481110E940E1385E00E948F
:102950007A1481110E9423140E9433138093C501BD
:1029600087E00E947A14882371F08BE10E947A1428
:10297000882309F4B1C09091C501892F8D7F91FF03
:1029800082608093C5018091C5010E9437130E9427
:10299000451390E09093F7018093F60180EE0E943A
:1029A0007A14882341F09091F601892F8E7F90FF51
:1029B00081608093F60189E30E947A14882341F0B4
:1029C0009091F601892F8D7F91FF82608093F601AF
:1029D00082EE0E947A14882341F09091F601892FAB
:1029E0008B7F92FF84608093F60186EE0E947A14BA
:1029F000882341F09091F601892F877F93FF8860AB
:102A00008093F60183EE0E947A14882341F090911E
:102A1000F601892F8F7E94FF80618093F60185E314
:102A20000E947A14882341F09091F601892F8F7DBE
:102A300095FF80628093F60181E30E947A148823D7
:102A400041F09091F601892F8F7B96FF80648093EF
:102A5000F60181E10E947A14882341F09091F601F9
:102A6000892F97FB87F980588093F6018091F601B2
:102A70000E94491387E20E947A14C82F8EE10E94B7
:102A80007A148111C2608FE10E947A148111C460AE
:102A900080E20E947A148111C86081E20E947A1457
:102AA0008111C06182E20E947A148111C06283E2C6
:102AB0000E947A148111C06484E20E947A148823EF
:102AC00041F1C0688C2F0E9440136C2F70E090E0A1
:102AD00080E0CF910C94E20F8EE00E947A1488235C
:102AE00039F09091C501892F8B7F92FF846049CF87
:102AF00080E10E947A149091C501882329F0892FE2
:102B0000877F93FF88603DCF892F8E7F90FF816004
:102B100038CFC111D7CF0E943C13682FD7CFCF91A8
:102B200008958091C90180FF12C06091050185E080
:102B3000689FB00111247595679575956795603804
:102B40007105A8F561157105A1F1862F089581FF22
:102B500009C06091050185E0689FB0011124759559
:102B60006795EDCF82FF07C06091050185E0689F02
:102B7000B0011124E4CF2091CA012223A9F0909141
:102B800004016091050185E0689FB00111242917B7
:102B9000B0F6269FA001279F500D1124692F70E0E9
:102BA000CA010E94D31FCBCF65E070E0CECF8FE784
:102BB000089581E008958091C90180FF0CC0609163
:102BC000030170E0759567957595679561157105B9
:102BD00049F1862F089581FF06C06091030170E0DE
:102BE00075956795F3CF6091030182FD0BC09091BD
:102BF000CA019923A1F06091020180910301961707
:102C000038F0682F70E06038710500F38FE70895A1
:102C1000899FC001112470E00E94D31FF4CF61E0AE
:102C200070E0D7CF81E00895803F31F40E94911584
:102C300081958093CD010895813F19F40E949115EB
:102C4000F8CF823F31F40E94911581958093CC0199
:102C50000895833F19F40E949115F8CF893F29F414
:102C60000E94DB158093CE0108958A3F21F40E94D3
:102C7000DB158195F7CF8B3F31F40E94DB158195F1
:102C80008093CF0108958C3F19F40E94DB15F8CF93
:102C9000843F31F48091CB0181608093CB01089512
:102CA000853F21F48091CB018260F7CF863F21F4EC
:102CB0008091CB018460F1CF873F21F48091CB01DB
:102CC0008860EBCF883F21F48091CB018061E5CF14
:102CD0008D3F31F48091C90181608093C9010895CD
:102CE0008E3F21F48091C9018260F7CF8F3FB9F701
:102CF0008091C9018460F1CF803FC1F48091CD0102
:102D000087FD1092CD018091CC0181110EC0809180
:102D1000CD0181110AC08091CE01811106C0809140
:102D2000CF01811102C01092CA010895813F29F498
:102D30008091CD0118162CF3E6CF9091CC01823F03
:102D400029F497FFE0CF1092CC01DDCF833F19F437
:102D50001916CCF3D8CF893F39F48091CE011816DB
:102D600094F61092CE01CFCF8A3F29F48091CE0104
:102D700087FFC9CFF6CF8B3F39F48091CF0187FF12
:102D8000C2CF1092CF01BFCF8C3F29F48091CF01E9
:102D90001816BCF3B8CF843F31F48091CB018E7FFD
:102DA0008093CB01B0CF853F21F48091CB018D7F03
:102DB000F7CF863F21F48091CB018B7FF1CF873F06
:102DC00021F48091CB01877FEBCF883F21F4809164
:102DD000CB018F7EE5CF8D3F31F48091C9018E7F8D
:102DE0008093C90190CF8E3F21F48091C9018D7FDE
:102DF000F7CF8F3F09F087CF8091C9018B7FF0CF4C
:102E00008BEC91E00E945E070E94C8139093C8016A
:102E10008093C70108951F93CF93DF938091C701DB
:102E20009091C8010E94D413AC019091CA012091E5
:102E3000060130E0911106C0209107018AE0289F29
:102E4000900111244217530780F08091CC01C0916A
:102E5000CD011091CE01D091CF0181110AC0C111D5
:102E600078C0111176C0D11174C0DF91CF911F913C
:102E700008959F3F19F09F5F9093CA01181624F49C
:102E80000E9491158093CC018091CC0187FF05C0F1
:102E90000E94911581958093CC011C1624F40E9408
:102EA00091158093CD018091CD0187FF05C00E94CF
:102EB000911581958093CD016091CC01662331F10C
:102EC000C091CD01CC2311F1062E000C770B880B9D
:102ED000990B0E94DA1E23E333E343E35FE30E948E
:102EE0003E1F0E94A21E6093CC016C2FCC0F770B6B
:102EF000880B990B0E94DA1E23E333E343E35FE37D
:102F00000E943E1F0E94A21E6093CD01111624F460
:102F10000E94DB158093CE018091CE0187FF05C012
:102F20000E94DB1581958093CE011D1624F40E942A
:102F3000DB158093CF018091CF0187FF05C00E94F0
:102F4000DB1581958093CF01DF91CF911F910C9478
:102F500000179F3F09F08FCFA0CF85E0EBECF1E0A9
:102F6000DF011D928A95E9F71092CA011092C901FA
:102F700008958091F0010895CF93DF9300D01F92C0
:102F8000CDB7DEB79C018091FC01843019F593E048
:102F900099833B832A839093E9008FEF9091E80017
:102FA000815095FD06C095ED9A95F1F700008111CD
:102FB000F5CF8091E80085FF0DC050E040E063E070
:102FC00070E0CE0101960E94171A8091E8008E777A
:102FD0008093E8000F900F900F90DF91CF910895AC
:102FE000CF93DF9300D01F92CDB7DEB72091FC01C5
:102FF000243031F522E02983805891099B838A830C
:1030000083E08093E9008FEF9091E800815095FD77
:1030100006C095ED9A95F1F700008111F5CF8091EA
:10302000E80085FF0DC050E040E063E070E0CE01B5
:1030300001960E94171A8091E8008E778093E8002D
:103040000F900F900F90DF91CF9108959C01809188
:10305000FC018430F9F482E08093E9009FEF8091D5
:10306000E800915085FD06C085ED8A95F1F70000D6
:103070009111F5CF8091E80085FF0CC050E040E051
:1030800065E070E0C9010E94171A8091E8008E7710
:103090008093E8000895CF93DF93EC018091FC01C9
:1030A0008430F1F4909112019923E9F09091F601A6
:1030B00097FF19C08093E9008FEF9091E80081504D
:1030C00095FD06C095E19A95F1F700008111F5CFC5
:1030D0008091E80050E040E060E270E085FD1AC0B9
:1030E000DF91CF91089581E08093E9008FEF909177
:1030F000E800815095FD06C095ED9A95F1F7000026
:103100008111F5CF8091E80085FFEACF50E040E0E3
:1031100068E070E0CE010E94171A8091E8008E7777
:103120008093E80080E2FE01A0EDB1E001900D92F5
:103130008A95E1F7D5CF8091FB01811109C00E94EA
:10314000A71B0E94041C8091E20084608093E2002F
:1031500008951092FB010895089508950C9490131A
:1031600042E061EC81E00E94251B42E061EC82E0DC
:103170000E94251B42E061EC83E00E94251B42E295
:1031800061EC84E00C94251B8091FE01833009F4EE
:1031900055C030F4813071F1823009F491C0089546
:1031A0008A3009F47DC08B3009F463C0893009F09E
:1031B00044C08091FD01813209F03FC0809101023D
:1031C00090910202009711F00397B9F58091E80001
:1031D000877F8093E8008091E80082FF2AC0809179
:1031E000F1008093F0018091E8008B778093E800F4
:1031F0000C94591B8091FD01813AF9F48091E8000B
:10320000877F8093E8008091010290910202892BD0
:1032100061F460E280ED91E070E00E94661A8091B6
:10322000E8008B778093E800089560E090E080E00C
:10323000F3CF8091FC018111CECF08958091FD01E3
:10324000813AD9F78091010290910202892BA9F766
:103250008091E800877F8093E8008091E80080FFFC
:10326000FCCF809112018093F1008091E8008E776D
:10327000BDCF8091FD01813201F7809101029091D3
:103280000202892BD1F68091E800877F8093E800C5
:103290000E94591B8091FF01809312010C940E0C27
:1032A0008091FD01813249F68091E800877F80930B
:1032B000E8000E94591B809100028093F10108955B
:1032C0008091FD01813A09F0B8CF8091E800877FB5
:1032D0008093E8008091E80080FFFCCF8091F101AD
:1032E000C2CF84B7877F84BF0FB6F894A89580912A
:1032F0006000886180936000109260000FBE80E8DB
:1033000080936100109261000E9496070E94A71BA3
:103310000E94041C8091E20084608093E200789413
:103320000E94861E0E94980788E091E00E94420752
:103330008091FC01853019F00E949E07F9CF0E9410
:103340004E138091FA01882399F30E947C138823FD
:1033500079F30E94011AECCF292F3327233031054E
:1033600079F158F421303105F1F02230310519F1AD
:1033700090E080E030E020E01AC02132310599F180
:1033800022323105A9F7643098F770E0FB01EE0FA7
:10339000FF1FE15EFE4F20813181655E7E4FFB01A4
:1033A000808190E004C082E190E024E433E0FA01FF
:1033B0003183208308958DE690E027ED32E0F7CF4A
:1033C00099278130910561F028F0029789F6E7EAA4
:1033D000F2E002C0E3EDF2E0849190E09F01E7CFDC
:1033E000EBEBF2E0F9CF643008F0C2CFE62FF0E06B
:1033F000EE0FFF1FE95DFE4F2081318189E090E0F3
:10340000D6CF80E189BD82E189BD09B400FEFDCF40
:103410008091D8008F7D8093D8008091E0008260F9
:103420008093E0008091E00081FDFCCF0895AF9291
:10343000BF92CF92DF92FF920F931F93CF93DF93B0
:103440006C01EB018A010E94781BF82E811123C0C8
:103450000115110539F0F80180819181C81BD90B44
:10346000C80ED91EB12CA12C2097A9F08091E8009C
:1034700085FD22C08091E8008E778093E8000115D9
:103480001105A1F0F80180819181A80EB91EB182C9
:10349000A08285E0F82E8F2DDF91CF911F910F91A3
:1034A000FF90DF90CF90BF90AF9008950E94781B5F
:1034B0008823D1F2F82EEFCFF60181916F0180932E
:1034C000F1002197FFEFAF1ABF0ACECFFC01809128
:1034D00003029091040286179707A0F06115710509
:1034E00029F49091E8009E779093E80090E06115B0
:1034F000710551F4911108C08091E80082FF35C038
:1035000080E00895BC01F2CF8091FC018823C9F1CD
:103510008530C9F18091E80083FD31C08091E800D9
:1035200082FDEACF8091E80080FFE1CF2091F30097
:103530008091F200322F282F6115710519F0283083
:10354000310558F091E02830310509F090E02091E4
:10355000E8002E772093E800CACF81918093F10094
:10356000615071092F5F3F4FE7CF8091FC018823A5
:1035700041F0853041F08091E80083FFBDCF81E0CC
:10358000089582E0089583E00895FC01809103028C
:103590009091040286179707A0F06115710529F430
:1035A0008091E8008E778093E80090E061157105C6
:1035B00051F4911108C08091E80082FF36C080E08C
:1035C0000895BC01F2CF8091FC018823D1F18530B0
:1035D000D1F18091E80083FD32C08091E80082FD46
:1035E000EACF8091E80080FFE1CF2091F300809145
:1035F000F200322F282F6115710519F0283031059E
:1036000058F091E02830310509F090E08091E80011
:103610008E778093E800CACF84918093F100319631
:10362000615071092F5F3F4FE6CF8091FC018823E5
:1036300041F0853041F08091E80083FFBCCF81E00C
:10364000089582E0089583E00895982F973028F038
:103650008F708093E90081E008959093E900242F12
:10366000762F50E0981731F07091EC002091ED002A
:103670005091F00021FD02C09F5FE8CF3091EB0038
:103680003E7F3093EB003091ED003D7F3093ED00B5
:103690003091EB0031603093EB007093EC0020939D
:1036A000ED005093F0002091EE0027FDE5CF80E083
:1036B00008958091FD0187FF13C08091E80082FF8B
:1036C00006C08091E8008B778093E80004C0809169
:1036D000FC018111F2CF08958091FC018823D9F378
:1036E0008091E80080FFF8CF8091E8008E77ECCFE2
:1036F0002091E4003091E50085E69091EC0090FF88
:1037000006C09091E80090FF06C080E00895909177
:10371000E80092FDFACF9091FC01992391F0953049
:1037200091F09091EB0095FD10C04091E400509114
:10373000E5002417350709F381509A01F1F684E07A
:10374000089582E0089583E0089581E008950E943D
:10375000151C0E941D1CE0EEF0E0808181608083DA
:10376000E8EDF0E080818F77808319BCA7EDB0E0B1
:103770008C918E7F8C9380818F7E80831092FB0151
:1037800008950F931F93CF93DF930E94151C0E94FF
:103790001D1CC8EDD0E088818F7788838881806880
:1037A000888388818F7D888319BC1092FC011092D8
:1037B000F8011092FA011092F90100EE10E0F80100
:1037C00080818B7F808388818160888342E060E094
:1037D00080E00E94251BE1EEF0E080818E7F8083F7
:1037E000E2EEF0E080818160808380818860808368
:1037F000F80180818E7F8083888180618883DF915A
:10380000CF911F910F910895E8EDF0E080818F7EB8
:103810008083E7EDF0E080818160808384E082BF77
:1038200081E08093FB010C94C11BE8EDF0E0808106
:103830008E7F80831092E20008951092DA00109239
:10384000E10008951F920F920FB60F9211242F934B
:103850003F934F935F936F937F938F939F93AF9318
:10386000BF93EF93FF938091E10082FF0BC08091A3
:10387000E20082FF07C08091E1008B7F8093E1002E
:103880000E94851E8091DA0080FF19C08091D800C7
:1038900080FF15C08091DA008E7F8093DA008091DE
:1038A000D90080FF94C080E189BD82E189BD09B45F
:1038B00000FEFDCF81E08093FC010E949B18809167
:1038C000E10080FF19C08091E20080FF15C0809167
:1038D000E2008E7F8093E2008091E200806180931D
:1038E000E2008091D80080628093D80019BC85E006
:1038F0008093FC010E94AD188091E10084FF29C0F3
:103900008091E20084FF25C080E189BD82E189BD0C
:1039100009B400FEFDCF8091D8008F7D8093D80040
:103920008091E1008F7E8093E1008091E2008F7EA4
:103930008093E2008091E20081608093E2008091B8
:10394000F801882309F449C084E08093FC010E94B7
:10395000AE188091E10083FF29C08091E20083FFCF
:1039600025C08091E100877F8093E10082E0809311
:10397000FC011092F8018091E1008E7F8093E100BC
:103980008091E2008E7F8093E2008091E20080616E
:103990008093E20042E060E080E00E94251B80917D
:1039A000F00088608093F0000E94AC18FF91EF91C6
:1039B000BF91AF919F918F917F916F915F914F9147
:1039C0003F912F910F900FBE0F901F90189519BC2B
:1039D0001092FC010E94A91872CF8091E30087FD2C
:1039E00002C081E0B2CF83E0B0CF1F920F920FB63A
:1039F0000F9211242F933F934F935F936F937F9375
:103A00008F939F93AF93BF93CF93EF93FF93C09107
:103A1000E900CF708091EC001092E9008091F000F5
:103A2000877F8093F00078940E94311D1092E90006
:103A30008091F00088608093F000C093E900FF91CE
:103A4000EF91CF91BF91AF919F918F917F916F91A6
:103A50005F914F913F912F910F900FBE0F901F904C
:103A600018951F93CF93DF93CDB7DEB7AA970FB604
:103A7000F894DEBF0FBECDBFEDEFF1E08091F10015
:103A8000819322E0E530F207C9F70E94C4188091C3
:103A9000E80083FF42C08091FD019091FE019A30C1
:103AA00008F03BC0E92FF0E0E85AF24E0C94E71F13
:103AB000621D861D8D1D861D8D1DE11D031E8D1D24
:103AC000581E651E803879F0823839F580910102E0
:103AD0008F708093E9008091EB0085FB882780F947
:103AE0001092E90006C08091F9019091FA019111BC
:103AF00082609091E800977F9093E8008093F100B6
:103B00001092F1008091E8008E772DC0282F2D7F34
:103B100021F48823D1F0823059F18091E80083FFAD
:103B20000AC08091E800877F8093E8008091EB00D5
:103B300080628093EB00AA960FB6F894DEBF0FBEAA
:103B4000CDBFDF91CF911F9108958091FF0181300A
:103B500021F7933009F080E08093FA011092E90098
:103B60008091E800877F8093E8000E94591BD5CFA1
:103B70008091FF018111F2CF809101028F7069F273
:103B80008093E9002091EB0020FFE8CF933031F4DF
:103B90008091EB0080628093EB00E0CF9091EB008E
:103BA00090619093EB0021E030E001C0220F8A95F4
:103BB000EAF72093EA001092EA008091EB00886017
:103BC000EACF8111AACF1091FF011F778091E30006
:103BD0008078812B8093E3008091E800877F809339
:103BE000E8000E94591B8091E80080FFFCCF809183
:103BF000E30080688093E30083E0111101C082E05C
:103C00008093FC018ACF8058823008F086CF809163
:103C1000FF01909100028C3D23E09207A1F583E023
:103C20008A838AE289834FB7F894DE01139620E0F5
:103C30003EE051E2E32FF0E050935700E49120FF83
:103C400003C0E295EF703F5FEF708E2F90E0EA3097
:103C5000C0F0C7968D939D932F5F243159F74FBFC6
:103C60008091E800877F8093E8006AE270E0CE01EF
:103C700001960E94661A8091E8008B778093E80095
:103C80004CCFC096E7CFAE014F5F5F4F609101020E
:103C90000E94AC19BC01892B09F43FCF9091E80038
:103CA000977F9093E80089819A810E94C51AE3CF9B
:103CB000803809F032CF8091E800877F8093E80058
:103CC0008091F8018093F1001DCF811126CF909152
:103CD000FF01923008F021CF8091E800877F809328
:103CE000E8009093F8010E94591B8091F801882305
:103CF00031F084E08093FC010E94B0180ECF8091D7
:103D0000E30087FDF6CF81E0F5CF0895CF93809152
:103D1000FC01882399F0C091E900CF708091EC00FC
:103D200080FD0EC080E0C82B1092E9008091E80071
:103D300083FD0E94311DCF70C093E900CF9108959B
:103D400080E8F1CF0E94A91E6894B1110C94381F2D
:103D500008950E941D1F88F09F5798F0B92F99274A
:103D6000B751B0F0E1F0660F771F881F991F1AF066
:103D7000BA95C9F714C0B13091F00E94371FB1E075
:103D800008950C94371F672F782F8827B85F39F074
:103D9000B93FCCF3869577956795B395D9F73EF4FF
:103DA00090958095709561957F4F8F4F9F4F0895A7
:103DB000E89409C097FB3EF49095809570956195C5
:103DC0007F4F8F4F9F4F9923A9F0F92F96E9BB277B
:103DD0009395F695879577956795B795F111F8CFF7
:103DE000FAF4BB0F11F460FF1BC06F5F7F4F8F4F62
:103DF0009F4F16C0882311F096E911C0772321F058
:103E00009EE8872F762F05C0662371F096E8862FEF
:103E100070E060E02AF09A95660F771F881FDAF746
:103E2000880F9695879597F9089557FD9058440FF8
:103E3000551F59F05F3F71F04795880F97FB991F09
:103E400061F09F3F79F087950895121613061406C6
:103E5000551FF2CF4695F1DF08C016161706180653
:103E6000991FF1CF86957105610508940895E8942E
:103E7000BB2766277727CB0197F908950E94511F2A
:103E80000C94C21F0E94B41F38F00E94BB1F20F088
:103E9000952311F00C94AB1F0C94B11F11240C94BA
:103EA000381F0E94151F70F3959FC1F3950F50E0C6
:103EB000551F629FF001729FBB27F00DB11D639FDC
:103EC000AA27F00DB11DAA1F649F6627B00DA11D82
:103ED000661F829F2227B00DA11D621F739FB00D28
:103EE000A11D621F839FA00D611D221F749F332798
:103EF000A00D611D231F849F600D211D822F762F31
:103F00006A2F11249F5750409AF0F1F088234AF00D
:103F1000EE0FFF1FBB1F661F771F881F9150504079
:103F2000A9F79E3F510580F00C94AB1F0C94381FED
:103F30005F3FE4F3983ED4F3869577956795B79500
:103F4000F795E7959F5FC1F7FE2B880F911D96951A
:103F5000879597F9089597F99F6780E870E060E08A
:103F600008959FEF80EC089500240A941616170612
:103F700018060906089500240A941216130614065A
:103F800005060895092E0394000C11F4882352F0BD
:103F9000BB0F40F4BF2B11F460FF04C06F5F7F4F75
:103FA0008F4F9F4F089597FB072E16F4009407D06C
:103FB00077FD09D00E94ED1F07FC05D03EF49095D7
:103FC00081959F4F0895709561957F4F0895EE0FED
:103FD000FF1F0590F491E02D0994AA1BBB1B51E132
:103FE00007C0AA1FBB1FA617B70710F0A61BB70B69
:103FF000881F991F5A95A9F780959095BC01CD010E
:104000000895F999FECF92BD81BDF89A992780B5A0
:104010000895A8E1B0E042E050E00C942920262F5A
:10402000F999FECF92BD81BDF89A019700B40216AE
:1040300039F01FBA20BD0FB6F894FA9AF99A0FBE5C
:1040400008950196272F0E9410200C940F20DC0168
:10405000CB01FC01F999FECF06C0F2BDE1BDF89A93
:10406000319600B40D9241505040B8F70895F8943D
:02407000FFCF80
:10407200A2012808140A321EB9174B182618F01785
:10408200BC17019190946697313332404D36391204
:1040920004C5038F035603E90202031B0334030022
:00000001FF
